{"abi":[{"type":"constructor","inputs":[],"stateMutability":"nonpayable"},{"type":"function","name":"owner","inputs":[],"outputs":[{"name":"","type":"address","internalType":"address"}],"stateMutability":"view"},{"type":"function","name":"positiveEven","inputs":[],"outputs":[{"name":"","type":"uint256","internalType":"uint256"}],"stateMutability":"view"},{"type":"function","name":"renounceOwnership","inputs":[],"outputs":[],"stateMutability":"nonpayable"},{"type":"function","name":"setPositiveEven","inputs":[{"name":"_positiveEven","type":"uint256","internalType":"uint256"}],"outputs":[],"stateMutability":"nonpayable"},{"type":"function","name":"transferOwnership","inputs":[{"name":"newOwner","type":"address","internalType":"address"}],"outputs":[],"stateMutability":"nonpayable"},{"type":"event","name":"OwnershipTransferred","inputs":[{"name":"previousOwner","type":"address","indexed":true,"internalType":"address"},{"name":"newOwner","type":"address","indexed":true,"internalType":"address"}],"anonymous":false},{"type":"event","name":"PositiveEvenSet","inputs":[{"name":"_prevPositiveEven","type":"uint256","indexed":false,"internalType":"uint256"},{"name":"_newPositiveEven","type":"uint256","indexed":false,"internalType":"uint256"}],"anonymous":false},{"type":"error","name":"OwnableInvalidOwner","inputs":[{"name":"owner","type":"address","internalType":"address"}]},{"type":"error","name":"OwnableUnauthorizedAccount","inputs":[{"name":"account","type":"address","internalType":"address"}]},{"type":"error","name":"SetEvenToOddNumber","inputs":[{"name":"_oddNumber","type":"uint256","internalType":"uint256"}]},{"type":"error","name":"SetPositiveNumberToZero","inputs":[]}],"bytecode":{"object":"0x6080604052348015600f57600080fd5b503380603557604051631e4fbdf760e01b81526000600482015260240160405180910390fd5b603c816046565b5060026001556096565b600080546001600160a01b038381166001600160a01b0319831681178455604051919092169283917f8be0079c531659141344cd1fd0a4f28419497f9722a3daafe3b4186f6b6457e09190a35050565b6102ce806100a56000396000f3fe608060405234801561001057600080fd5b50600436106100575760003560e01c806308eb4bc31461005c578063715018a6146100715780638da5cb5b14610079578063d3a1c07114610099578063f2fde38b146100b0575b600080fd5b61006f61006a36600461022d565b6100c3565b005b61006f61015e565b6000546040516001600160a01b0390911681526020015b60405180910390f35b6100a260015481565b604051908152602001610090565b61006f6100be366004610246565b610172565b6100cb6101b0565b806000036100ec57604051632c03496560e21b815260040160405180910390fd5b6100f7600282610276565b1561011d5760405163cff917b960e01b8152600481018290526024015b60405180910390fd5b60015460408051918252602082018390527fc710b576f0e4b3f7a795b1879c5fbe339c5fbc5542f03ba09cb81254ef870ee8910160405180910390a1600155565b6101666101b0565b61017060006101dd565b565b61017a6101b0565b6001600160a01b0381166101a457604051631e4fbdf760e01b815260006004820152602401610114565b6101ad816101dd565b50565b6000546001600160a01b031633146101705760405163118cdaa760e01b8152336004820152602401610114565b600080546001600160a01b038381166001600160a01b0319831681178455604051919092169283917f8be0079c531659141344cd1fd0a4f28419497f9722a3daafe3b4186f6b6457e09190a35050565b60006020828403121561023f57600080fd5b5035919050565b60006020828403121561025857600080fd5b81356001600160a01b038116811461026f57600080fd5b9392505050565b60008261029357634e487b7160e01b600052601260045260246000fd5b50069056fea26469706673582212205bd08fb72696a4307029b83538be42d9f60dbb42ea1580498e08eedea37d6d2e64736f6c634300081b0033","linkReferences":{}},"methodIdentifiers":{"owner()":"8da5cb5b","positiveEven()":"d3a1c071","renounceOwnership()":"715018a6","setPositiveEven(uint256)":"08eb4bc3","transferOwnership(address)":"f2fde38b"},"id":0}